:1000000094C00000B1C00000AFC00000ADC000004F
:10001000ABC00000A9C0000029C20000A5C00000BC
:10002000A3C00000A1C000009FC000009DC0000050
:100030009BC0000099C0000097C0000095C0000060
:1000400093C0000091C000008FC000008DC0000070
:10005000E0C1000089C0000087C0000085C000002A
:1000600083C0000088C20000B1C200007DC0000053
:100070007BC0000079C0000077C0000075C00000A0
:1000800073C0000071C000006FC000006DC00000B0
:100090006BC0000069C0000067C0000065C00000C0
:1000A00063C0000061C000005FC000005DC00000D0
:1000B0005BC0000059C0000057C0000055C00000E0
:1000C00053C0000051C000004FC000004DC00000F0
:1000D0004BC0000049C0000047C0000045C0000000
:1000E00043C000005265702E0D0A00202020202001
:1000F0000020202020200002FD6F629D7522DD6C13
:10010000C23D72A85764689731986732B04F333058
:10011000CF3418E7357A853610EF3738C7385AA507
:10012000394AB53042BD2A52AD2311241FBECFEF4C
:10013000D1E2DEBFCDBF00E00CBF12E0A0E0B2E034
:10014000E8EBF8E000E00BBF02C007900D92A6308C
:10015000B107D9F723E0A6E0B2E001C01D92AC35AB
:10016000B207E1F73AD3A6C34BCF1092B9008FEF95
:100170008093BB0088E48093B80084E08093BC0047
:10018000089584EA8093BC00ECEBF0E08081882342
:10019000ECF79091B900987F81E0983009F080E009
:1001A00008958093BB0084E88093BC00ECEBF0E002
:1001B00080818823ECF79091B900987F81E0983195
:1001C00009F080E008958093BB0084E88093BC0030
:1001D000ECEBF0E080818823ECF79091B900987FF8
:1001E00081E0983209F080E0089584E98093BC00B2
:1001F000ECEBF0E0808184FDFDCF0895CF93C82F14
:10020000C0DF8EE7CEDF8C2FDEDFEFDFCF910895EA
:10021000CF93C82F662331F08091060281608093CE
:10022000060205C0809106028E7F809306028091AF
:1002300006028D7F80930602809106028F70809364
:100240000602809106029C2F907F892B80930602E4
:100250008091060284608093060280910602CEDFC0
:10026000809106028B7F8093060280910602C6DF92
:10027000809106028F70809306022091060230E181
:10028000C39FC0011124822B809306028091060235
:1002900084608093060280910602B0DF809106029E
:1002A0008B7F8093060280910602A8DFCF9108958C
:1002B000662379F04091060221E030E0B90102C0E6
:1002C000660F771F8A95E2F7CB01842B8093060295
:1002D0000FC04091060221E030E0B90102C0660F74
:1002E000771F8A95E2F7CB018095842380930602DD
:1002F0008091060283CF089561E082E0D9DF85E036
:100300008A95F1F7000060E082E0D2CF089560E0C6
:100310007FCF0895611103C08058F9CF08958054AC
:10032000F6CF089581E0F3DF8FE99FE00197F1F7C1
:1003300000C00000089561E06BCF0895CF93DF9374
:10034000EC012196FC018081882321F0F4DF899162
:100350008111FCCFDF91CF910895CF93DF93EC0112
:100360002196FC018491882331F0E5DFFE01849120
:1003700021968111FACFDF91CF910895CF93C82FA5
:1003800010920602F2DE61E083E092DF8FEF99EFD8
:100390000197F1F700C000009091060290639093DE
:1003A0000602809106022ADFA7DF8FE19EE4019713
:1003B000F1F700C00000A0DF8FEF90E00197F1F7A8
:1003C00000C0000099DF8FEF90E00197F1F700C0C7
:1003D0000000909106029F7E909306028091060293
:1003E0000DDF8ADF8FEF90E00197F1F700C000008A
:1003F00088E28DDF8CE08BDF95DF86E088DF8C2F55
:1004000086DFCF910895E1E8F0E080818C7F8083E2
:1004100008951F920F920FB60F9211240BB60F92F0
:100420002F933F934F935F936F937F938F939F93FC
:10043000AF93BF93EF93FF93E6DF84E991E190934D
:10044000850080938400FF91EF91BF91AF919F91C0
:100450008F917F916F915F914F913F912F910F906D
:100460000BBE0F900FBE0F901F9018951F920F920A
:100470000FB60F9211240BB60F922F933F934F9309
:100480005F936F937F938F939F93AF93BF93EF93FC
:10049000FF93B9DFE4E8F0E020813181118210821E
:1004A00080918B02882319F08130B9F034C0223B4F
:1004B00088E0380708F449C0659B47C0E0918B028B
:1004C000F0E0EE0FFF1FE057FD4F31832083809156
:1004D0008B028F5F80938B0238C0233684E038070D
:1004E00078F0E0918B02F0E0EE0FFF1FE057FD4F38
:1004F0003183208380918B028F5F80938B0225C094
:100500002732324010F110928B0280918C0282606F
:1005100080938C021AC080918B02833440F0109239
:100520008B0280918C02816080938C020EC0E091DE
:100530008B02F0E0EE0FFF1FE057FD4F3183208369
:1005400080918B028F5F80938B0283E08093810088
:10055000FF91EF91BF91AF919F918F917F916F919B
:100560005F914F913F912F910F900BBE0F900FBE57
:100570000F901F9018951F920F920FB60F92112493
:100580000BB60F928F93EF93FF93E091070281E0F8
:100590008E0F80930702F0E08091C600E65EFC4F6C
:1005A000808380910702803210F0109207028091C0
:1005B0008C02846080938C02FF91EF918F910F9059
:1005C0000BBE0F900FBE0F901F9018951F920F92A9
:1005D0000FB60F9211240BB60F928F939F93EF9348
:1005E000FF9390910A0280910902981769F0E091B7
:1005F0000902EF5FEF77E0930902F0E0E55FFD4F5E
:1006000080818093C60005C0E1ECF0E080818F7DA1
:100610008083FF91EF919F918F910F900BBE0F9070
:100620000FBE0F901F90189583E08093810081E0AA
:1006300080936F00089584E080936A0080E28DBB10
:1006400008951092C50087E68093C40088E98093DE
:10065000C10086E08093C200089520910A022F5FB6
:100660002F77909109022917E1F3E22FF0E0E55F7F
:10067000FD4F808320930A02E1ECF0E080818062EC
:1006800080830895CF93DF93EC012196FC01849140
:10069000882331F0E2DFFE01849121968111FACFA7
:1006A000DF91CF9108951092080210920A021092E1
:1006B000090210928F020895FC012081318180E0AF
:1006C00090E0FC01E950FF4FE4912E130EC0FC01B5
:1006D000E850FF4FE4913E1308C0FC01E750FF4F84
:1006E000449140938E0281E00895039683339105EF
:1006F00041F780E00895CF93DF9300D01F92CDB7EC
:10070000DEB719821A821B821C8243E050E030E07F
:10071000832F86958695869590E0E1E0F0E0EC0FDA
:10072000FD1FE80FF91F2081220F2083FA01EE0F31
:10073000FF1FE057FD4F60817181693C710540F0FA
:10074000E1E0F0E0EC0FFD1FE80FF91F21602083CE
:100750003F5F4E5F5F4F3032D9F6E6E1F3E08981CB
:1007600080838A8181838B8182838C818383CE0184
:100770000396A2DF0F900F900F900F90DF91CF9113
:100780000895CF93DF9300D01F92CDB7DEB781E3FA
:10079000898382E38A8383E38B8384E38C838091E0
:1007A0003A03813381F4ABE3B3E0FE0132969E015C
:1007B0002B5F3F4F9D918191981307C0E217F3077C
:1007C000C9F781E003C080E001C080E00F900F9086
:1007D0000F900F90DF91CF910895F89464DF31DF8F
:1007E00023DF29DF8CE0CADD2FEF81EE94E021507A
:1007F00080409040E1F700C00000789480918C0226
:1008000080FF4BC080918C028E7F80938C0273DFBF
:100810008823A1F360E08FE07DDD80918E028BDD87
:1008200080918E028F3619F5ACDF8130B9F480915A
:100830008D02843099F461E080E06CDD80918F025C
:10084000811107C080E092E079DD81E080938F0222
:1008500005C081EF90E081DD10928F0210928D0231
:1008600060E080E057DD8BEE90E077DDC7CF8091D0
:100870008D02843008F0C2CF60E04CDD8AE25BDD9F
:1008800080918D02E82FF0E0E65CFC4F90918E02A3
:1008900090838F5F80938D02B1CF80918C0281FF16
:1008A000ADCF80918C028D7F80938C0284EE90E09E
:0808B000E9DEA4CFF894FFCFAC
:0608B80041524D454400D1
:00000001FF
